{
  "_format": "hh-sol-artifact-1",
  "contractName": "CryptoIhorNFT",
  "sourceName": "contracts/CryptoIhorNFT.sol",
  "abi": [
    {
      "inputs": [],
      "stateMutability": "payable",
      "type": "constructor"
    },
    {
      "anonymous": false,
      "inputs": [
        {
          "indexed": true,
          "internalType": "address",
          "name": "owner",
          "type": "address"
        },
        {
          "indexed": true,
          "internalType": "address",
          "name": "approved",
          "type": "address"
        },
        {
          "indexed": true,
          "internalType": "uint256",
          "name": "tokenId",
          "type": "uint256"
        }
      ],
      "name": "Approval",
      "type": "event"
    },
    {
      "anonymous": false,
      "inputs": [
        {
          "indexed": true,
          "internalType": "address",
          "name": "owner",
          "type": "address"
        },
        {
          "indexed": true,
          "internalType": "address",
          "name": "operator",
          "type": "address"
        },
        {
          "indexed": false,
          "internalType": "bool",
          "name": "approved",
          "type": "bool"
        }
      ],
      "name": "ApprovalForAll",
      "type": "event"
    },
    {
      "anonymous": false,
      "inputs": [
        {
          "indexed": true,
          "internalType": "address",
          "name": "previousOwner",
          "type": "address"
        },
        {
          "indexed": true,
          "internalType": "address",
          "name": "newOwner",
          "type": "address"
        }
      ],
      "name": "OwnershipTransferred",
      "type": "event"
    },
    {
      "anonymous": false,
      "inputs": [
        {
          "indexed": true,
          "internalType": "address",
          "name": "from",
          "type": "address"
        },
        {
          "indexed": true,
          "internalType": "address",
          "name": "to",
          "type": "address"
        },
        {
          "indexed": true,
          "internalType": "uint256",
          "name": "tokenId",
          "type": "uint256"
        }
      ],
      "name": "Transfer",
      "type": "event"
    },
    {
      "inputs": [
        {
          "internalType": "address",
          "name": "to",
          "type": "address"
        },
        {
          "internalType": "uint256",
          "name": "tokenId",
          "type": "uint256"
        }
      ],
      "name": "approve",
      "outputs": [],
      "stateMutability": "nonpayable",
      "type": "function"
    },
    {
      "inputs": [
        {
          "internalType": "address",
          "name": "owner",
          "type": "address"
        }
      ],
      "name": "balanceOf",
      "outputs": [
        {
          "internalType": "uint256",
          "name": "",
          "type": "uint256"
        }
      ],
      "stateMutability": "view",
      "type": "function"
    },
    {
      "inputs": [
        {
          "internalType": "uint256",
          "name": "tokenId",
          "type": "uint256"
        }
      ],
      "name": "getApproved",
      "outputs": [
        {
          "internalType": "address",
          "name": "",
          "type": "address"
        }
      ],
      "stateMutability": "view",
      "type": "function"
    },
    {
      "inputs": [
        {
          "internalType": "address",
          "name": "owner",
          "type": "address"
        },
        {
          "internalType": "address",
          "name": "operator",
          "type": "address"
        }
      ],
      "name": "isApprovedForAll",
      "outputs": [
        {
          "internalType": "bool",
          "name": "",
          "type": "bool"
        }
      ],
      "stateMutability": "view",
      "type": "function"
    },
    {
      "inputs": [],
      "name": "isPublicMintEnabled",
      "outputs": [
        {
          "internalType": "bool",
          "name": "",
          "type": "bool"
        }
      ],
      "stateMutability": "view",
      "type": "function"
    },
    {
      "inputs": [],
      "name": "maxPerWallet",
      "outputs": [
        {
          "internalType": "uint256",
          "name": "",
          "type": "uint256"
        }
      ],
      "stateMutability": "view",
      "type": "function"
    },
    {
      "inputs": [],
      "name": "maxSupply",
      "outputs": [
        {
          "internalType": "uint256",
          "name": "",
          "type": "uint256"
        }
      ],
      "stateMutability": "view",
      "type": "function"
    },
    {
      "inputs": [
        {
          "internalType": "uint256",
          "name": "_quantity",
          "type": "uint256"
        }
      ],
      "name": "mint",
      "outputs": [],
      "stateMutability": "payable",
      "type": "function"
    },
    {
      "inputs": [],
      "name": "mintPrice",
      "outputs": [
        {
          "internalType": "uint256",
          "name": "",
          "type": "uint256"
        }
      ],
      "stateMutability": "view",
      "type": "function"
    },
    {
      "inputs": [],
      "name": "name",
      "outputs": [
        {
          "internalType": "string",
          "name": "",
          "type": "string"
        }
      ],
      "stateMutability": "view",
      "type": "function"
    },
    {
      "inputs": [],
      "name": "owner",
      "outputs": [
        {
          "internalType": "address",
          "name": "",
          "type": "address"
        }
      ],
      "stateMutability": "view",
      "type": "function"
    },
    {
      "inputs": [
        {
          "internalType": "uint256",
          "name": "tokenId",
          "type": "uint256"
        }
      ],
      "name": "ownerOf",
      "outputs": [
        {
          "internalType": "address",
          "name": "",
          "type": "address"
        }
      ],
      "stateMutability": "view",
      "type": "function"
    },
    {
      "inputs": [],
      "name": "renounceOwnership",
      "outputs": [],
      "stateMutability": "nonpayable",
      "type": "function"
    },
    {
      "inputs": [
        {
          "internalType": "address",
          "name": "from",
          "type": "address"
        },
        {
          "internalType": "address",
          "name": "to",
          "type": "address"
        },
        {
          "internalType": "uint256",
          "name": "tokenId",
          "type": "uint256"
        }
      ],
      "name": "safeTransferFrom",
      "outputs": [],
      "stateMutability": "nonpayable",
      "type": "function"
    },
    {
      "inputs": [
        {
          "internalType": "address",
          "name": "from",
          "type": "address"
        },
        {
          "internalType": "address",
          "name": "to",
          "type": "address"
        },
        {
          "internalType": "uint256",
          "name": "tokenId",
          "type": "uint256"
        },
        {
          "internalType": "bytes",
          "name": "data",
          "type": "bytes"
        }
      ],
      "name": "safeTransferFrom",
      "outputs": [],
      "stateMutability": "nonpayable",
      "type": "function"
    },
    {
      "inputs": [
        {
          "internalType": "address",
          "name": "operator",
          "type": "address"
        },
        {
          "internalType": "bool",
          "name": "approved",
          "type": "bool"
        }
      ],
      "name": "setApprovalForAll",
      "outputs": [],
      "stateMutability": "nonpayable",
      "type": "function"
    },
    {
      "inputs": [
        {
          "internalType": "string",
          "name": "_baseTokenUri",
          "type": "string"
        }
      ],
      "name": "setBaseTokenUri",
      "outputs": [],
      "stateMutability": "nonpayable",
      "type": "function"
    },
    {
      "inputs": [
        {
          "internalType": "bool",
          "name": "_isPublicMintEnabled",
          "type": "bool"
        }
      ],
      "name": "setIsPublicMintEnabled",
      "outputs": [],
      "stateMutability": "nonpayable",
      "type": "function"
    },
    {
      "inputs": [
        {
          "internalType": "bytes4",
          "name": "interfaceId",
          "type": "bytes4"
        }
      ],
      "name": "supportsInterface",
      "outputs": [
        {
          "internalType": "bool",
          "name": "",
          "type": "bool"
        }
      ],
      "stateMutability": "view",
      "type": "function"
    },
    {
      "inputs": [],
      "name": "symbol",
      "outputs": [
        {
          "internalType": "string",
          "name": "",
          "type": "string"
        }
      ],
      "stateMutability": "view",
      "type": "function"
    },
    {
      "inputs": [
        {
          "internalType": "uint256",
          "name": "_tokenId",
          "type": "uint256"
        }
      ],
      "name": "tokenURI",
      "outputs": [
        {
          "internalType": "string",
          "name": "",
          "type": "string"
        }
      ],
      "stateMutability": "view",
      "type": "function"
    },
    {
      "inputs": [],
      "name": "totalSupply",
      "outputs": [
        {
          "internalType": "uint256",
          "name": "",
          "type": "uint256"
        }
      ],
      "stateMutability": "view",
      "type": "function"
    },
    {
      "inputs": [
        {
          "internalType": "address",
          "name": "from",
          "type": "address"
        },
        {
          "internalType": "address",
          "name": "to",
          "type": "address"
        },
        {
          "internalType": "uint256",
          "name": "tokenId",
          "type": "uint256"
        }
      ],
      "name": "transferFrom",
      "outputs": [],
      "stateMutability": "nonpayable",
      "type": "function"
    },
    {
      "inputs": [
        {
          "internalType": "address",
          "name": "newOwner",
          "type": "address"
        }
      ],
      "name": "transferOwnership",
      "outputs": [],
      "stateMutability": "nonpayable",
      "type": "function"
    },
    {
      "inputs": [
        {
          "internalType": "address",
          "name": "",
          "type": "address"
        }
      ],
      "name": "walletMints",
      "outputs": [
        {
          "internalType": "uint256",
          "name": "",
          "type": "uint256"
        }
      ],
      "stateMutability": "view",
      "type": "function"
    },
    {
      "inputs": [],
      "name": "withdraw",
      "outputs": [],
      "stateMutability": "nonpayable",
      "type": "function"
    },
    {
      "inputs": [],
      "name": "withdrawWallet",
      "outputs": [
        {
          "internalType": "address payable",
          "name": "",
          "type": "address"
        }
      ],
      "stateMutability": "view",
      "type": "function"
    }
  ],
  "bytecode": "0x60806040526040518060400160405280600a81526020017f43727970746f49686f72000000000000000000000000000000000000000000008152506040518060400160405280600281526020017f4349000000000000000000000000000000000000000000000000000000000000815250816000908162000081919062000480565b50806001908162000093919062000480565b505050620000b6620000aa6200013860201b60201c565b6200014060201b60201c565b66470de4df82000060078190555060006008819055506103e86009819055506003600a81905550731c67ca825f6ccee24a7d7136f7f1a9a1df03738c600d60006101000a81548173ffffffffffffffffffffffffffffffffffffffff021916908373ffffffffffffffffffffffffffffffffffffffff16021790555062000567565b600033905090565b6000600660009054906101000a900473ffffffffffffffffffffffffffffffffffffffff16905081600660006101000a81548173ffffffffffffffffffffffffffffffffffffffff021916908373ffffffffffffffffffffffffffffffffffffffff1602179055508173ffffffffffffffffffffffffffffffffffffffff168173ffffffffffffffffffffffffffffffffffffffff167f8be0079c531659141344cd1fd0a4f28419497f9722a3daafe3b4186f6b6457e060405160405180910390a35050565b600081519050919050565b7f4e487b7100000000000000000000000000000000000000000000000000000000600052604160045260246000fd5b7f4e487b7100000000000000000000000000000000000000000000000000000000600052602260045260246000fd5b600060028204905060018216806200028857607f821691505b6020821081036200029e576200029d62000240565b5b50919050565b60008190508160005260206000209050919050565b60006020601f8301049050919050565b600082821b905092915050565b600060088302620003087fffffffffffffffffffffffffffffffffffffffffffffffffffffffffffffffff82620002c9565b620003148683620002c9565b95508019841693508086168417925050509392505050565b6000819050919050565b6000819050919050565b6000620003616200035b62000355846200032c565b62000336565b6200032c565b9050919050565b6000819050919050565b6200037d8362000340565b620003956200038c8262000368565b848454620002d6565b825550505050565b600090565b620003ac6200039d565b620003b981848462000372565b505050565b5b81811015620003e157620003d5600082620003a2565b600181019050620003bf565b5050565b601f8211156200043057620003fa81620002a4565b6200040584620002b9565b8101602085101562000415578190505b6200042d6200042485620002b9565b830182620003be565b50505b505050565b600082821c905092915050565b6000620004556000198460080262000435565b1980831691505092915050565b600062000470838362000442565b9150826002028217905092915050565b6200048b8262000206565b67ffffffffffffffff811115620004a757620004a662000211565b5b620004b382546200026f565b620004c0828285620003e5565b600060209050601f831160018114620004f85760008415620004e3578287015190505b620004ef858262000462565b8655506200055f565b601f1984166200050886620002a4565b60005b8281101562000532578489015182556001820191506020850194506020810190506200050b565b868310156200055257848901516200054e601f89168262000442565b8355505b6001600288020188555050505b505050505050565b61360580620005776000396000f3fe60806040526004361061019c5760003560e01c806370a08231116100ec578063a22cb4651161008a578063d5abeb0111610064578063d5abeb0114610593578063e985e9c5146105be578063f0293fd3146105fb578063f2fde38b146106385761019c565b8063a22cb46514610504578063b88d4fde1461052d578063c87b56dd146105565761019c565b80638da5cb5b116100c65780638da5cb5b1461046957806395652cfa1461049457806395d89b41146104bd578063a0712d68146104e85761019c565b806370a08231146103ea578063715018a61461042757806385d178f41461043e5761019c565b80632373ac221161015957806342842e0e1161013357806342842e0e1461032e578063453c2310146103575780636352211e146103825780636817c76c146103bf5761019c565b80632373ac22146102c557806323b872dd146102ee5780633ccfd60b146103175761019c565b80630116bc2d146101a157806301ffc9a7146101cc57806306fdde0314610209578063081812fc14610234578063095ea7b31461027157806318160ddd1461029a575b600080fd5b3480156101ad57600080fd5b506101b6610661565b6040516101c39190611ebb565b60405180910390f35b3480156101d857600080fd5b506101f360048036038101906101ee9190611f42565b610674565b6040516102009190611ebb565b60405180910390f35b34801561021557600080fd5b5061021e610756565b60405161022b9190611fff565b60405180910390f35b34801561024057600080fd5b5061025b60048036038101906102569190612057565b6107e8565b60405161026891906120c5565b60405180910390f35b34801561027d57600080fd5b506102986004803603810190610293919061210c565b61082e565b005b3480156102a657600080fd5b506102af610945565b6040516102bc919061215b565b60405180910390f35b3480156102d157600080fd5b506102ec60048036038101906102e791906121a2565b61094b565b005b3480156102fa57600080fd5b50610315600480360381019061031091906121cf565b610970565b005b34801561032357600080fd5b5061032c6109d0565b005b34801561033a57600080fd5b50610355600480360381019061035091906121cf565b610aa9565b005b34801561036357600080fd5b5061036c610ac9565b604051610379919061215b565b60405180910390f35b34801561038e57600080fd5b506103a960048036038101906103a49190612057565b610acf565b6040516103b691906120c5565b60405180910390f35b3480156103cb57600080fd5b506103d4610b80565b6040516103e1919061215b565b60405180910390f35b3480156103f657600080fd5b50610411600480360381019061040c9190612222565b610b86565b60405161041e919061215b565b60405180910390f35b34801561043357600080fd5b5061043c610c3d565b005b34801561044a57600080fd5b50610453610c51565b6040516104609190612270565b60405180910390f35b34801561047557600080fd5b5061047e610c77565b60405161048b91906120c5565b60405180910390f35b3480156104a057600080fd5b506104bb60048036038101906104b691906122f0565b610ca1565b005b3480156104c957600080fd5b506104d2610cbf565b6040516104df9190611fff565b60405180910390f35b61050260048036038101906104fd9190612057565b610d51565b005b34801561051057600080fd5b5061052b6004803603810190610526919061233d565b610f28565b005b34801561053957600080fd5b50610554600480360381019061054f91906124ad565b610f3e565b005b34801561056257600080fd5b5061057d60048036038101906105789190612057565b610fa0565b60405161058a9190611fff565b60405180910390f35b34801561059f57600080fd5b506105a861101c565b6040516105b5919061215b565b60405180910390f35b3480156105ca57600080fd5b506105e560048036038101906105e09190612530565b611022565b6040516105f29190611ebb565b60405180910390f35b34801561060757600080fd5b50610622600480360381019061061d9190612222565b6110b6565b60405161062f919061215b565b60405180910390f35b34801561064457600080fd5b5061065f600480360381019061065a9190612222565b6110ce565b005b600b60009054906101000a900460ff1681565b60007f80ac58cd000000000000000000000000000000000000000000000000000000007bffffffffffffffffffffffffffffffffffffffffffffffffffffffff1916827bffffffffffffffffffffffffffffffffffffffffffffffffffffffff1916148061073f57507f5b5e139f000000000000000000000000000000000000000000000000000000007bffffffffffffffffffffffffffffffffffffffffffffffffffffffff1916827bffffffffffffffffffffffffffffffffffffffffffffffffffffffff1916145b8061074f575061074e82611151565b5b9050919050565b6060600080546107659061259f565b80601f01602080910402602001604051908101604052809291908181526020018280546107919061259f565b80156107de5780601f106107b3576101008083540402835291602001916107de565b820191906000526020600020905b8154815290600101906020018083116107c157829003601f168201915b5050505050905090565b60006107f3826111bb565b6004600083815260200190815260200160002060009054906101000a900473ffffffffffffffffffffffffffffffffffffffff169050919050565b600061083982610acf565b90508073ffffffffffffffffffffffffffffffffffffffff168373ffffffffffffffffffffffffffffffffffffffff16036108a9576040517f08c379a00000000000000000000000000000000000000000000000000000000081526004016108a090612642565b60405180910390fd5b8073ffffffffffffffffffffffffffffffffffffffff166108c8611206565b73ffffffffffffffffffffffffffffffffffffffff1614806108f757506108f6816108f1611206565b611022565b5b610936576040517f08c379a000000000000000000000000000000000000000000000000000000000815260040161092d906126d4565b60405180910390fd5b610940838361120e565b505050565b60085481565b6109536112c7565b80600b60006101000a81548160ff02191690831515021790555050565b61098161097b611206565b82611345565b6109c0576040517f08c379a00000000000000000000000000000000000000000000000000000000081526004016109b790612766565b60405180910390fd5b6109cb8383836113da565b505050565b6109d86112c7565b6000600d60009054906101000a900473ffffffffffffffffffffffffffffffffffffffff1673ffffffffffffffffffffffffffffffffffffffff1647604051610a20906127b7565b60006040518083038185875af1925050503d8060008114610a5d576040519150601f19603f3d011682016040523d82523d6000602084013e610a62565b606091505b5050905080610aa6576040517f08c379a0000000000000000000000000000000000000000000000000000000008152600401610a9d90612818565b60405180910390fd5b50565b610ac483838360405180602001604052806000815250610f3e565b505050565b600a5481565b6000806002600084815260200190815260200160002060009054906101000a900473ffffffffffffffffffffffffffffffffffffffff169050600073ffffffffffffffffffffffffffffffffffffffff168173ffffffffffffffffffffffffffffffffffffffff1603610b77576040517f08c379a0000000000000000000000000000000000000000000000000000000008152600401610b6e90612884565b60405180910390fd5b80915050919050565b60075481565b60008073ffffffffffffffffffffffffffffffffffffffff168273ffffffffffffffffffffffffffffffffffffffff1603610bf6576040517f08c379a0000000000000000000000000000000000000000000000000000000008152600401610bed90612916565b60405180910390fd5b600360008373ffffffffffffffffffffffffffffffffffffffff1673ffffffffffffffffffffffffffffffffffffffff168152602001908152602001600020549050919050565b610c456112c7565b610c4f6000611640565b565b600d60009054906101000a900473ffffffffffffffffffffffffffffffffffffffff1681565b6000600660009054906101000a900473ffffffffffffffffffffffffffffffffffffffff16905090565b610ca96112c7565b8181600c9182610cba929190612aed565b505050565b606060018054610cce9061259f565b80601f0160208091040260200160405190810160405280929190818152602001828054610cfa9061259f565b8015610d475780601f10610d1c57610100808354040283529160200191610d47565b820191906000526020600020905b815481529060010190602001808311610d2a57829003601f168201915b5050505050905090565b600b60009054906101000a900460ff16610da0576040517f08c379a0000000000000000000000000000000000000000000000000000000008152600401610d9790612c09565b60405180910390fd5b60075481610dae9190612c58565b3414610def576040517f08c379a0000000000000000000000000000000000000000000000000000000008152600401610de690612ce6565b60405180910390fd5b60095481600854610e009190612d06565b1115610e41576040517f08c379a0000000000000000000000000000000000000000000000000000000008152600401610e3890612d86565b60405180910390fd5b600a5481600e60003373ffffffffffffffffffffffffffffffffffffffff1673ffffffffffffffffffffffffffffffffffffffff16815260200190815260200160002054610e8f9190612d06565b1115610ed0576040517f08c379a0000000000000000000000000000000000000000000000000000000008152600401610ec790612df2565b60405180910390fd5b60005b81811015610f245760006001600854610eec9190612d06565b905060086000815480929190610f0190612e12565b9190505550610f103382611706565b508080610f1c90612e12565b915050610ed3565b5050565b610f3a610f33611206565b8383611724565b5050565b610f4f610f49611206565b83611345565b610f8e576040517f08c379a0000000000000000000000000000000000000000000000000000000008152600401610f8590612766565b60405180910390fd5b610f9a84848484611890565b50505050565b6060610fab826118ec565b610fea576040517f08c379a0000000000000000000000000000000000000000000000000000000008152600401610fe190612ea6565b60405180910390fd5b600c610ff583611958565b604051602001611006929190612fd1565b6040516020818303038152906040529050919050565b60095481565b6000600560008473ffffffffffffffffffffffffffffffffffffffff1673ffffffffffffffffffffffffffffffffffffffff16815260200190815260200160002060008373ffffffffffffffffffffffffffffffffffffffff1673ffffffffffffffffffffffffffffffffffffffff16815260200190815260200160002060009054906101000a900460ff16905092915050565b600e6020528060005260406000206000915090505481565b6110d66112c7565b600073ffffffffffffffffffffffffffffffffffffffff168173ffffffffffffffffffffffffffffffffffffffff1603611145576040517f08c379a000000000000000000000000000000000000000000000000000000000815260040161113c90613072565b60405180910390fd5b61114e81611640565b50565b60007f01ffc9a7000000000000000000000000000000000000000000000000000000007bffffffffffffffffffffffffffffffffffffffffffffffffffffffff1916827bffffffffffffffffffffffffffffffffffffffffffffffffffffffff1916149050919050565b6111c4816118ec565b611203576040517f08c379a00000000000000000000000000000000000000000000000000000000081526004016111fa90612884565b60405180910390fd5b50565b600033905090565b816004600083815260200190815260200160002060006101000a81548173ffffffffffffffffffffffffffffffffffffffff021916908373ffffffffffffffffffffffffffffffffffffffff160217905550808273ffffffffffffffffffffffffffffffffffffffff1661128183610acf565b73ffffffffffffffffffffffffffffffffffffffff167f8c5be1e5ebec7d5bd14f71427d1e84f3dd0314c0f7b2291e5b200ac8c7c3b92560405160405180910390a45050565b6112cf611206565b73ffffffffffffffffffffffffffffffffffffffff166112ed610c77565b73ffffffffffffffffffffffffffffffffffffffff1614611343576040517f08c379a000000000000000000000000000000000000000000000000000000000815260040161133a906130de565b60405180910390fd5b565b60008061135183610acf565b90508073ffffffffffffffffffffffffffffffffffffffff168473ffffffffffffffffffffffffffffffffffffffff16148061139357506113928185611022565b5b806113d157508373ffffffffffffffffffffffffffffffffffffffff166113b9846107e8565b73ffffffffffffffffffffffffffffffffffffffff16145b91505092915050565b8273ffffffffffffffffffffffffffffffffffffffff166113fa82610acf565b73ffffffffffffffffffffffffffffffffffffffff1614611450576040517f08c379a000000000000000000000000000000000000000000000000000000000815260040161144790613170565b60405180910390fd5b600073ffffffffffffffffffffffffffffffffffffffff168273ffffffffffffffffffffffffffffffffffffffff16036114bf576040517f08c379a00000000000000000000000000000000000000000000000000000000081526004016114b690613202565b60405180910390fd5b6114ca838383611ab8565b6114d560008261120e565b6001600360008573ffffffffffffffffffffffffffffffffffffffff1673ffffffffffffffffffffffffffffffffffffffff16815260200190815260200160002060008282546115259190613222565b925050819055506001600360008473ffffffffffffffffffffffffffffffffffffffff1673ffffffffffffffffffffffffffffffffffffffff168152602001908152602001600020600082825461157c9190612d06565b92505081905550816002600083815260200190815260200160002060006101000a81548173ffffffffffffffffffffffffffffffffffffffff021916908373ffffffffffffffffffffffffffffffffffffffff160217905550808273ffffffffffffffffffffffffffffffffffffffff168473ffffffffffffffffffffffffffffffffffffffff167fddf252ad1be2c89b69c2b068fc378daa952ba7f163c4a11628f55a4df523b3ef60405160405180910390a461163b838383611abd565b505050565b6000600660009054906101000a900473ffffffffffffffffffffffffffffffffffffffff16905081600660006101000a81548173ffffffffffffffffffffffffffffffffffffffff021916908373ffffffffffffffffffffffffffffffffffffffff1602179055508173ffffffffffffffffffffffffffffffffffffffff168173ffffffffffffffffffffffffffffffffffffffff167f8be0079c531659141344cd1fd0a4f28419497f9722a3daafe3b4186f6b6457e060405160405180910390a35050565b611720828260405180602001604052806000815250611ac2565b5050565b8173ffffffffffffffffffffffffffffffffffffffff168373ffffffffffffffffffffffffffffffffffffffff1603611792576040517f08c379a0000000000000000000000000000000000000000000000000000000008152600401611789906132a2565b60405180910390fd5b80600560008573ffffffffffffffffffffffffffffffffffffffff1673ffffffffffffffffffffffffffffffffffffffff16815260200190815260200160002060008473ffffffffffffffffffffffffffffffffffffffff1673ffffffffffffffffffffffffffffffffffffffff16815260200190815260200160002060006101000a81548160ff0219169083151502179055508173ffffffffffffffffffffffffffffffffffffffff168373ffffffffffffffffffffffffffffffffffffffff167f17307eab39ab6107e8899845ad3d59bd9653f200f220920489ca2b5937696c31836040516118839190611ebb565b60405180910390a3505050565b61189b8484846113da565b6118a784848484611b1d565b6118e6576040517f08c379a00000000000000000000000000000000000000000000000000000000081526004016118dd90613334565b60405180910390fd5b50505050565b60008073ffffffffffffffffffffffffffffffffffffffff166002600084815260200190815260200160002060009054906101000a900473ffffffffffffffffffffffffffffffffffffffff1673ffffffffffffffffffffffffffffffffffffffff1614159050919050565b60606000820361199f576040518060400160405280600181526020017f30000000000000000000000000000000000000000000000000000000000000008152509050611ab3565b600082905060005b600082146119d15780806119ba90612e12565b915050600a826119ca9190613383565b91506119a7565b60008167ffffffffffffffff8111156119ed576119ec612382565b5b6040519080825280601f01601f191660200182016040528015611a1f5781602001600182028036833780820191505090505b5090505b60008514611aac57600182611a389190613222565b9150600a85611a4791906133b4565b6030611a539190612d06565b60f81b818381518110611a6957611a686133e5565b5b60200101907effffffffffffffffffffffffffffffffffffffffffffffffffffffffffffff1916908160001a905350600a85611aa59190613383565b9450611a23565b8093505050505b919050565b505050565b505050565b611acc8383611ca4565b611ad96000848484611b1d565b611b18576040517f08c379a0000000000000000000000000000000000000000000000000000000008152600401611b0f90613334565b60405180910390fd5b505050565b6000611b3e8473ffffffffffffffffffffffffffffffffffffffff16611e7d565b15611c97578373ffffffffffffffffffffffffffffffffffffffff1663150b7a02611b67611206565b8786866040518563ffffffff1660e01b8152600401611b899493929190613469565b6020604051808303816000875af1925050508015611bc557506040513d601f19601f82011682018060405250810190611bc291906134ca565b60015b611c47573d8060008114611bf5576040519150601f19603f3d011682016040523d82523d6000602084013e611bfa565b606091505b506000815103611c3f576040517f08c379a0000000000000000000000000000000000000000000000000000000008152600401611c3690613334565b60405180910390fd5b805181602001fd5b63150b7a0260e01b7bffffffffffffffffffffffffffffffffffffffffffffffffffffffff1916817bffffffffffffffffffffffffffffffffffffffffffffffffffffffff191614915050611c9c565b600190505b949350505050565b600073ffffffffffffffffffffffffffffffffffffffff168273ffffffffffffffffffffffffffffffffffffffff1603611d13576040517f08c379a0000000000000000000000000000000000000000000000000000000008152600401611d0a90613543565b60405180910390fd5b611d1c816118ec565b15611d5c576040517f08c379a0000000000000000000000000000000000000000000000000000000008152600401611d53906135af565b60405180910390fd5b611d6860008383611ab8565b6001600360008473ffffffffffffffffffffffffffffffffffffffff1673ffffffffffffffffffffffffffffffffffffffff1681526020019081526020016000206000828254611db89190612d06565b92505081905550816002600083815260200190815260200160002060006101000a81548173ffffffffffffffffffffffffffffffffffffffff021916908373ffffffffffffffffffffffffffffffffffffffff160217905550808273ffffffffffffffffffffffffffffffffffffffff16600073ffffffffffffffffffffffffffffffffffffffff167fddf252ad1be2c89b69c2b068fc378daa952ba7f163c4a11628f55a4df523b3ef60405160405180910390a4611e7960008383611abd565b5050565b6000808273ffffffffffffffffffffffffffffffffffffffff163b119050919050565b60008115159050919050565b611eb581611ea0565b82525050565b6000602082019050611ed06000830184611eac565b92915050565b6000604051905090565b600080fd5b600080fd5b60007fffffffff0000000000000000000000000000000000000000000000000000000082169050919050565b611f1f81611eea565b8114611f2a57600080fd5b50565b600081359050611f3c81611f16565b92915050565b600060208284031215611f5857611f57611ee0565b5b6000611f6684828501611f2d565b91505092915050565b600081519050919050565b600082825260208201905092915050565b60005b83811015611fa9578082015181840152602081019050611f8e565b60008484015250505050565b6000601f19601f8301169050919050565b6000611fd182611f6f565b611fdb8185611f7a565b9350611feb818560208601611f8b565b611ff481611fb5565b840191505092915050565b600060208201905081810360008301526120198184611fc6565b905092915050565b6000819050919050565b61203481612021565b811461203f57600080fd5b50565b6000813590506120518161202b565b92915050565b60006020828403121561206d5761206c611ee0565b5b600061207b84828501612042565b91505092915050565b600073ffffffffffffffffffffffffffffffffffffffff82169050919050565b60006120af82612084565b9050919050565b6120bf816120a4565b82525050565b60006020820190506120da60008301846120b6565b92915050565b6120e9816120a4565b81146120f457600080fd5b50565b600081359050612106816120e0565b92915050565b6000806040838503121561212357612122611ee0565b5b6000612131858286016120f7565b925050602061214285828601612042565b9150509250929050565b61215581612021565b82525050565b6000602082019050612170600083018461214c565b92915050565b61217f81611ea0565b811461218a57600080fd5b50565b60008135905061219c81612176565b92915050565b6000602082840312156121b8576121b7611ee0565b5b60006121c68482850161218d565b91505092915050565b6000806000606084860312156121e8576121e7611ee0565b5b60006121f6868287016120f7565b9350506020612207868287016120f7565b925050604061221886828701612042565b9150509250925092565b60006020828403121561223857612237611ee0565b5b6000612246848285016120f7565b91505092915050565b600061225a82612084565b9050919050565b61226a8161224f565b82525050565b60006020820190506122856000830184612261565b92915050565b600080fd5b600080fd5b600080fd5b60008083601f8401126122b0576122af61228b565b5b8235905067ffffffffffffffff8111156122cd576122cc612290565b5b6020830191508360018202830111156122e9576122e8612295565b5b9250929050565b6000806020838503121561230757612306611ee0565b5b600083013567ffffffffffffffff81111561232557612324611ee5565b5b6123318582860161229a565b92509250509250929050565b6000806040838503121561235457612353611ee0565b5b6000612362858286016120f7565b92505060206123738582860161218d565b9150509250929050565b600080fd5b7f4e487b7100000000000000000000000000000000000000000000000000000000600052604160045260246000fd5b6123ba82611fb5565b810181811067ffffffffffffffff821117156123d9576123d8612382565b5b80604052505050565b60006123ec611ed6565b90506123f882826123b1565b919050565b600067ffffffffffffffff82111561241857612417612382565b5b61242182611fb5565b9050602081019050919050565b82818337600083830152505050565b600061245061244b846123fd565b6123e2565b90508281526020810184848401111561246c5761246b61237d565b5b61247784828561242e565b509392505050565b600082601f8301126124945761249361228b565b5b81356124a484826020860161243d565b91505092915050565b600080600080608085870312156124c7576124c6611ee0565b5b60006124d5878288016120f7565b94505060206124e6878288016120f7565b93505060406124f787828801612042565b925050606085013567ffffffffffffffff81111561251857612517611ee5565b5b6125248782880161247f565b91505092959194509250565b6000806040838503121561254757612546611ee0565b5b6000612555858286016120f7565b9250506020612566858286016120f7565b9150509250929050565b7f4e487b7100000000000000000000000000000000000000000000000000000000600052602260045260246000fd5b600060028204905060018216806125b757607f821691505b6020821081036125ca576125c9612570565b5b50919050565b7f4552433732313a20617070726f76616c20746f2063757272656e74206f776e6560008201527f7200000000000000000000000000000000000000000000000000000000000000602082015250565b600061262c602183611f7a565b9150612637826125d0565b604082019050919050565b6000602082019050818103600083015261265b8161261f565b9050919050565b7f4552433732313a20617070726f76652063616c6c6572206973206e6f7420746f60008201527f6b656e206f776e6572206e6f7220617070726f76656420666f7220616c6c0000602082015250565b60006126be603e83611f7a565b91506126c982612662565b604082019050919050565b600060208201905081810360008301526126ed816126b1565b9050919050565b7f4552433732313a2063616c6c6572206973206e6f7420746f6b656e206f776e6560008201527f72206e6f7220617070726f766564000000000000000000000000000000000000602082015250565b6000612750602e83611f7a565b915061275b826126f4565b604082019050919050565b6000602082019050818103600083015261277f81612743565b9050919050565b600081905092915050565b50565b60006127a1600083612786565b91506127ac82612791565b600082019050919050565b60006127c282612794565b9150819050919050565b7f7769746864726177206661696c65640000000000000000000000000000000000600082015250565b6000612802600f83611f7a565b915061280d826127cc565b602082019050919050565b60006020820190508181036000830152612831816127f5565b9050919050565b7f4552433732313a20696e76616c696420746f6b656e2049440000000000000000600082015250565b600061286e601883611f7a565b915061287982612838565b602082019050919050565b6000602082019050818103600083015261289d81612861565b9050919050565b7f4552433732313a2061646472657373207a65726f206973206e6f74206120766160008201527f6c6964206f776e65720000000000000000000000000000000000000000000000602082015250565b6000612900602983611f7a565b915061290b826128a4565b604082019050919050565b6000602082019050818103600083015261292f816128f3565b9050919050565b600082905092915050565b60008190508160005260206000209050919050565b60006020601f8301049050919050565b600082821b905092915050565b6000600883026129a37fffffffffffffffffffffffffffffffffffffffffffffffffffffffffffffffff82612966565b6129ad8683612966565b95508019841693508086168417925050509392505050565b6000819050919050565b60006129ea6129e56129e084612021565b6129c5565b612021565b9050919050565b6000819050919050565b612a04836129cf565b612a18612a10826129f1565b848454612973565b825550505050565b600090565b612a2d612a20565b612a388184846129fb565b505050565b5b81811015612a5c57612a51600082612a25565b600181019050612a3e565b5050565b601f821115612aa157612a7281612941565b612a7b84612956565b81016020851015612a8a578190505b612a9e612a9685612956565b830182612a3d565b50505b505050565b600082821c905092915050565b6000612ac460001984600802612aa6565b1980831691505092915050565b6000612add8383612ab3565b9150826002028217905092915050565b612af78383612936565b67ffffffffffffffff811115612b1057612b0f612382565b5b612b1a825461259f565b612b25828285612a60565b6000601f831160018114612b545760008415612b42578287013590505b612b4c8582612ad1565b865550612bb4565b601f198416612b6286612941565b60005b82811015612b8a57848901358255600182019150602085019450602081019050612b65565b86831015612ba75784890135612ba3601f891682612ab3565b8355505b6001600288020188555050505b50505050505050565b7f4d696e74696e67206e6f7420656e61626c656400000000000000000000000000600082015250565b6000612bf3601383611f7a565b9150612bfe82612bbd565b602082019050919050565b60006020820190508181036000830152612c2281612be6565b9050919050565b7f4e487b7100000000000000000000000000000000000000000000000000000000600052601160045260246000fd5b6000612c6382612021565b9150612c6e83612021565b9250828202612c7c81612021565b91508282048414831517612c9357612c92612c29565b5b5092915050565b7f57726f6e67206d696e742076616c756500000000000000000000000000000000600082015250565b6000612cd0601083611f7a565b9150612cdb82612c9a565b602082019050919050565b60006020820190508181036000830152612cff81612cc3565b9050919050565b6000612d1182612021565b9150612d1c83612021565b9250828201905080821115612d3457612d33612c29565b5b92915050565b7f536f6c64206f7574000000000000000000000000000000000000000000000000600082015250565b6000612d70600883611f7a565b9150612d7b82612d3a565b602082019050919050565b60006020820190508181036000830152612d9f81612d63565b9050919050565b7f457863656564206d6178206d696e747300000000000000000000000000000000600082015250565b6000612ddc601083611f7a565b9150612de782612da6565b602082019050919050565b60006020820190508181036000830152612e0b81612dcf565b9050919050565b6000612e1d82612021565b91507fffffffffffffffffffffffffffffffffffffffffffffffffffffffffffffffff8203612e4f57612e4e612c29565b5b600182019050919050565b7f546f6b656e20646f6573206e6f74206578697374732100000000000000000000600082015250565b6000612e90601683611f7a565b9150612e9b82612e5a565b602082019050919050565b60006020820190508181036000830152612ebf81612e83565b9050919050565b600081905092915050565b60008154612ede8161259f565b612ee88186612ec6565b94506001821660008114612f035760018114612f1857612f4b565b60ff1983168652811515820286019350612f4b565b612f2185612941565b60005b83811015612f4357815481890152600182019150602081019050612f24565b838801955050505b50505092915050565b6000612f5f82611f6f565b612f698185612ec6565b9350612f79818560208601611f8b565b80840191505092915050565b7f2e6a736f6e000000000000000000000000000000000000000000000000000000600082015250565b6000612fbb600583612ec6565b9150612fc682612f85565b600582019050919050565b6000612fdd8285612ed1565b9150612fe98284612f54565b9150612ff482612fae565b91508190509392505050565b7f4f776e61626c653a206e6577206f776e657220697320746865207a65726f206160008201527f6464726573730000000000000000000000000000000000000000000000000000602082015250565b600061305c602683611f7a565b915061306782613000565b604082019050919050565b6000602082019050818103600083015261308b8161304f565b9050919050565b7f4f776e61626c653a2063616c6c6572206973206e6f7420746865206f776e6572600082015250565b60006130c8602083611f7a565b91506130d382613092565b602082019050919050565b600060208201905081810360008301526130f7816130bb565b9050919050565b7f4552433732313a207472616e736665722066726f6d20696e636f72726563742060008201527f6f776e6572000000000000000000000000000000000000000000000000000000602082015250565b600061315a602583611f7a565b9150613165826130fe565b604082019050919050565b600060208201905081810360008301526131898161314d565b9050919050565b7f4552433732313a207472616e7366657220746f20746865207a65726f2061646460008201527f7265737300000000000000000000000000000000000000000000000000000000602082015250565b60006131ec602483611f7a565b91506131f782613190565b604082019050919050565b6000602082019050818103600083015261321b816131df565b9050919050565b600061322d82612021565b915061323883612021565b92508282039050818111156132505761324f612c29565b5b92915050565b7f4552433732313a20617070726f766520746f2063616c6c657200000000000000600082015250565b600061328c601983611f7a565b915061329782613256565b602082019050919050565b600060208201905081810360008301526132bb8161327f565b9050919050565b7f4552433732313a207472616e7366657220746f206e6f6e20455243373231526560008201527f63656976657220696d706c656d656e7465720000000000000000000000000000602082015250565b600061331e603283611f7a565b9150613329826132c2565b604082019050919050565b6000602082019050818103600083015261334d81613311565b9050919050565b7f4e487b7100000000000000000000000000000000000000000000000000000000600052601260045260246000fd5b600061338e82612021565b915061339983612021565b9250826133a9576133a8613354565b5b828204905092915050565b60006133bf82612021565b91506133ca83612021565b9250826133da576133d9613354565b5b828206905092915050565b7f4e487b7100000000000000000000000000000000000000000000000000000000600052603260045260246000fd5b600081519050919050565b600082825260208201905092915050565b600061343b82613414565b613445818561341f565b9350613455818560208601611f8b565b61345e81611fb5565b840191505092915050565b600060808201905061347e60008301876120b6565b61348b60208301866120b6565b613498604083018561214c565b81810360608301526134aa8184613430565b905095945050505050565b6000815190506134c481611f16565b92915050565b6000602082840312156134e0576134df611ee0565b5b60006134ee848285016134b5565b91505092915050565b7f4552433732313a206d696e7420746f20746865207a65726f2061646472657373600082015250565b600061352d602083611f7a565b9150613538826134f7565b602082019050919050565b6000602082019050818103600083015261355c81613520565b9050919050565b7f4552433732313a20746f6b656e20616c7265616479206d696e74656400000000600082015250565b6000613599601c83611f7a565b91506135a482613563565b602082019050919050565b600060208201905081810360008301526135c88161358c565b905091905056fea26469706673582212200cc58dd671b63ebf81891dfe5212042cba11f131f21dbd532b64d6c759e2841b64736f6c63430008110033",
  "linkReferences": {},
  "deployedLinkReferences": {}
}